{
  "_format": "hh-sol-artifact-1",
  "contractName": "Deploys1Contract",
  "sourceName": "contracts/GasContractTests.sol",
  "abi": [
    {
      "inputs": [],
      "stateMutability": "nonpayable",
      "type": "constructor"
    },
    {
      "inputs": [],
      "name": "emptyContract",
      "outputs": [
        {
          "internalType": "contract EmptyContract",
          "name": "",
          "type": "address"
        }
      ],
      "stateMutability": "view",
      "type": "function"
    },
    {
      "inputs": [],
      "name": "owner",
      "outputs": [
        {
          "internalType": "address",
          "name": "",
          "type": "address"
        }
      ],
      "stateMutability": "view",
      "type": "function"
    }
  ],
  "bytecode": "0x608060405234801561001057600080fd5b50600080546001600160a01b0319163317815560405161002f90610054565b604051809103906000f08015801561004b573d6000803e3d6000fd5b50905050610060565b60c98061014283390190565b60d48061006e6000396000f3fe6080604052348015600f57600080fd5b506004361060325760003560e01c80638da5cb5b146037578063e3a8b34514607f575b600080fd5b60005460569073ffffffffffffffffffffffffffffffffffffffff1681565b60405173ffffffffffffffffffffffffffffffffffffffff909116815260200160405180910390f35b60015460569073ffffffffffffffffffffffffffffffffffffffff168156fea264697066735822122092c7d6e2ba8b550db75f680f4b76364c4f1f32860f8d3c47f224517307fcb4c964736f6c634300080900336080604052348015600f57600080fd5b5060ab8061001e6000396000f3fe6080604052348015600f57600080fd5b506004361060285760003560e01c80638da5cb5b14602d575b600080fd5b600054604c9073ffffffffffffffffffffffffffffffffffffffff1681565b60405173ffffffffffffffffffffffffffffffffffffffff909116815260200160405180910390f3fea26469706673582212201767ba3bfdfffa4ef21b317dc878efdb8b6184295fb9542f6d72ee7f5e0d0f7d64736f6c63430008090033",
  "linkReferences": {},
  "deployedLinkReferences": {}
}