{
  "_format": "hh-sol-artifact-1",
  "contractName": "ChildContract",
  "sourceName": "contracts/Parent.sol",
  "abi": [
    {
      "inputs": [],
      "stateMutability": "nonpayable",
      "type": "constructor"
    },
    {
      "inputs": [],
      "name": "chainContract",
      "outputs": [
        {
          "internalType": "contract ChainContract",
          "name": "",
          "type": "address"
        }
      ],
      "stateMutability": "view",
      "type": "function"
    },
    {
      "inputs": [],
      "name": "owner",
      "outputs": [
        {
          "internalType": "address",
          "name": "",
          "type": "address"
        }
      ],
      "stateMutability": "view",
      "type": "function"
    }
  ],
  "bytecode": "0x608060405234801561001057600080fd5b50600080546001600160a01b0319163317815560405161002f90610054565b604051809103906000f08015801561004b573d6000803e3d6000fd5b50905050610061565b61012b8061014383390190565b60d48061006f6000396000f3fe6080604052348015600f57600080fd5b506004361060325760003560e01c806359fcce011460375780638da5cb5b14607f575b600080fd5b60015460569073ffffffffffffffffffffffffffffffffffffffff1681565b60405173ffffffffffffffffffffffffffffffffffffffff909116815260200160405180910390f35b60005460569073ffffffffffffffffffffffffffffffffffffffff168156fea26469706673582212202390ff646619e0232378cb8a3d15469ee7e988179822b5d537fbeadd56fb228064736f6c63430008090033608060405234801561001057600080fd5b50600080546001600160a01b0319163317905560fa806100316000396000f3fe60806040526004361060205760003560e01c8063737bc3c914606257600080fd5b36605d57604051348152309033907fddf252ad1be2c89b69c2b068fc378daa952ba7f163c4a11628f55a4df523b3ef9060200160405180910390a3005b600080fd5b348015606d57600080fd5b5060746076565b005b6040513081527f05f4cdb0006e7dcbffd6cada5f35f6938b85d0b79d1c2a53752186c6ea4219049060200160405180910390a160005473ffffffffffffffffffffffffffffffffffffffff16fffea2646970667358221220dc7cc1c067b2906f37b6c181a539f1096f4e1dfd77d25507ed116c268154a52064736f6c63430008090033",
  "linkReferences": {},
  "deployedLinkReferences": {}
}