{
  "_format": "hh-sol-artifact-1",
  "contractName": "PrecompileTestContract",
  "sourceName": "contracts/PrecompileTestContract.sol",
  "abi": [
    {
      "anonymous": false,
      "inputs": [
        {
          "indexed": false,
          "internalType": "bool",
          "name": "",
          "type": "bool"
        },
        {
          "indexed": false,
          "internalType": "bytes",
          "name": "",
          "type": "bytes"
        }
      ],
      "name": "CallResponseEvent",
      "type": "event"
    },
    {
      "inputs": [
        {
          "internalType": "address",
          "name": "token",
          "type": "address"
        }
      ],
      "name": "getCustomFeesForToken",
      "outputs": [
        {
          "components": [
            {
              "internalType": "int64",
              "name": "amount",
              "type": "int64"
            },
            {
              "internalType": "address",
              "name": "tokenId",
              "type": "address"
            },
            {
              "internalType": "bool",
              "name": "useHbarsForPayment",
              "type": "bool"
            },
            {
              "internalType": "bool",
              "name": "useCurrentTokenForPayment",
              "type": "bool"
            },
            {
              "internalType": "address",
              "name": "feeCollector",
              "type": "address"
            }
          ],
          "internalType": "struct IHederaTokenService.FixedFee[]",
          "name": "fixedFees",
          "type": "tuple[]"
        },
        {
          "components": [
            {
              "internalType": "int64",
              "name": "numerator",
              "type": "int64"
            },
            {
              "internalType": "int64",
              "name": "denominator",
              "type": "int64"
            },
            {
              "internalType": "int64",
              "name": "minimumAmount",
              "type": "int64"
            },
            {
              "internalType": "int64",
              "name": "maximumAmount",
              "type": "int64"
            },
            {
              "internalType": "bool",
              "name": "netOfTransfers",
              "type": "bool"
            },
            {
              "internalType": "address",
              "name": "feeCollector",
              "type": "address"
            }
          ],
          "internalType": "struct IHederaTokenService.FractionalFee[]",
          "name": "fractionalFees",
          "type": "tuple[]"
        },
        {
          "components": [
            {
              "internalType": "int64",
              "name": "numerator",
              "type": "int64"
            },
            {
              "internalType": "int64",
              "name": "denominator",
              "type": "int64"
            },
            {
              "internalType": "int64",
              "name": "amount",
              "type": "int64"
            },
            {
              "internalType": "address",
              "name": "tokenId",
              "type": "address"
            },
            {
              "internalType": "bool",
              "name": "useHbarsForPayment",
              "type": "bool"
            },
            {
              "internalType": "address",
              "name": "feeCollector",
              "type": "address"
            }
          ],
          "internalType": "struct IHederaTokenService.RoyaltyFee[]",
          "name": "royaltyFees",
          "type": "tuple[]"
        }
      ],
      "stateMutability": "nonpayable",
      "type": "function"
    },
    {
      "inputs": [
        {
          "internalType": "address",
          "name": "token",
          "type": "address"
        }
      ],
      "name": "getExpiryInfoForToken",
      "outputs": [
        {
          "components": [
            {
              "internalType": "int64",
              "name": "second",
              "type": "int64"
            },
            {
              "internalType": "address",
              "name": "autoRenewAccount",
              "type": "address"
            },
            {
              "internalType": "int64",
              "name": "autoRenewPeriod",
              "type": "int64"
            }
          ],
          "internalType": "struct IHederaTokenService.Expiry",
          "name": "expiry",
          "type": "tuple"
        }
      ],
      "stateMutability": "nonpayable",
      "type": "function"
    },
    {
      "inputs": [
        {
          "internalType": "address",
          "name": "token",
          "type": "address"
        }
      ],
      "name": "getInformationForFungibleToken",
      "outputs": [
        {
          "components": [
            {
              "components": [
                {
                  "components": [
                    {
                      "internalType": "string",
                      "name": "name",
                      "type": "string"
                    },
                    {
                      "internalType": "string",
                      "name": "symbol",
                      "type": "string"
                    },
                    {
                      "internalType": "address",
                      "name": "treasury",
                      "type": "address"
                    },
                    {
                      "internalType": "string",
                      "name": "memo",
                      "type": "string"
                    },
                    {
                      "internalType": "bool",
                      "name": "tokenSupplyType",
                      "type": "bool"
                    },
                    {
                      "internalType": "int64",
                      "name": "maxSupply",
                      "type": "int64"
                    },
                    {
                      "internalType": "bool",
                      "name": "freezeDefault",
                      "type": "bool"
                    },
                    {
                      "components": [
                        {
                          "internalType": "uint256",
                          "name": "keyType",
                          "type": "uint256"
                        },
                        {
                          "components": [
                            {
                              "internalType": "bool",
                              "name": "inheritAccountKey",
                              "type": "bool"
                            },
                            {
                              "internalType": "address",
                              "name": "contractId",
                              "type": "address"
                            },
                            {
                              "internalType": "bytes",
                              "name": "ed25519",
                              "type": "bytes"
                            },
                            {
                              "internalType": "bytes",
                              "name": "ECDSA_secp256k1",
                              "type": "bytes"
                            },
                            {
                              "internalType": "address",
                              "name": "delegatableContractId",
                              "type": "address"
                            }
                          ],
                          "internalType": "struct IHederaTokenService.KeyValue",
                          "name": "key",
                          "type": "tuple"
                        }
                      ],
                      "internalType": "struct IHederaTokenService.TokenKey[]",
                      "name": "tokenKeys",
                      "type": "tuple[]"
                    },
                    {
                      "components": [
                        {
                          "internalType": "int64",
                          "name": "second",
                          "type": "int64"
                        },
                        {
                          "internalType": "address",
                          "name": "autoRenewAccount",
                          "type": "address"
                        },
                        {
                          "internalType": "int64",
                          "name": "autoRenewPeriod",
                          "type": "int64"
                        }
                      ],
                      "internalType": "struct IHederaTokenService.Expiry",
                      "name": "expiry",
                      "type": "tuple"
                    }
                  ],
                  "internalType": "struct IHederaTokenService.HederaToken",
                  "name": "token",
                  "type": "tuple"
                },
                {
                  "internalType": "int64",
                  "name": "totalSupply",
                  "type": "int64"
                },
                {
                  "internalType": "bool",
                  "name": "deleted",
                  "type": "bool"
                },
                {
                  "internalType": "bool",
                  "name": "defaultKycStatus",
                  "type": "bool"
                },
                {
                  "internalType": "bool",
                  "name": "pauseStatus",
                  "type": "bool"
                },
                {
                  "components": [
                    {
                      "internalType": "int64",
                      "name": "amount",
                      "type": "int64"
                    },
                    {
                      "internalType": "address",
                      "name": "tokenId",
                      "type": "address"
                    },
                    {
                      "internalType": "bool",
                      "name": "useHbarsForPayment",
                      "type": "bool"
                    },
                    {
                      "internalType": "bool",
                      "name": "useCurrentTokenForPayment",
                      "type": "bool"
                    },
                    {
                      "internalType": "address",
                      "name": "feeCollector",
                      "type": "address"
                    }
                  ],
                  "internalType": "struct IHederaTokenService.FixedFee[]",
                  "name": "fixedFees",
                  "type": "tuple[]"
                },
                {
                  "components": [
                    {
                      "internalType": "int64",
                      "name": "numerator",
                      "type": "int64"
                    },
                    {
                      "internalType": "int64",
                      "name": "denominator",
                      "type": "int64"
                    },
                    {
                      "internalType": "int64",
                      "name": "minimumAmount",
                      "type": "int64"
                    },
                    {
                      "internalType": "int64",
                      "name": "maximumAmount",
                      "type": "int64"
                    },
                    {
                      "internalType": "bool",
                      "name": "netOfTransfers",
                      "type": "bool"
                    },
                    {
                      "internalType": "address",
                      "name": "feeCollector",
                      "type": "address"
                    }
                  ],
                  "internalType": "struct IHederaTokenService.FractionalFee[]",
                  "name": "fractionalFees",
                  "type": "tuple[]"
                },
                {
                  "components": [
                    {
                      "internalType": "int64",
                      "name": "numerator",
                      "type": "int64"
                    },
                    {
                      "internalType": "int64",
                      "name": "denominator",
                      "type": "int64"
                    },
                    {
                      "internalType": "int64",
                      "name": "amount",
                      "type": "int64"
                    },
                    {
                      "internalType": "address",
                      "name": "tokenId",
                      "type": "address"
                    },
                    {
                      "internalType": "bool",
                      "name": "useHbarsForPayment",
                      "type": "bool"
                    },
                    {
                      "internalType": "address",
                      "name": "feeCollector",
                      "type": "address"
                    }
                  ],
                  "internalType": "struct IHederaTokenService.RoyaltyFee[]",
                  "name": "royaltyFees",
                  "type": "tuple[]"
                },
                {
                  "internalType": "string",
                  "name": "ledgerId",
                  "type": "string"
                }
              ],
              "internalType": "struct IHederaTokenService.TokenInfo",
              "name": "tokenInfo",
              "type": "tuple"
            },
            {
              "internalType": "int32",
              "name": "decimals",
              "type": "int32"
            }
          ],
          "internalType": "struct IHederaTokenService.FungibleTokenInfo",
          "name": "fungibleTokenInfo",
          "type": "tuple"
        }
      ],
      "stateMutability": "nonpayable",
      "type": "function"
    },
    {
      "inputs": [
        {
          "internalType": "address",
          "name": "token",
          "type": "address"
        },
        {
          "internalType": "int64",
          "name": "serialNumber",
          "type": "int64"
        }
      ],
      "name": "getInformationForNonFungibleToken",
      "outputs": [
        {
          "components": [
            {
              "components": [
                {
                  "components": [
                    {
                      "internalType": "string",
                      "name": "name",
                      "type": "string"
                    },
                    {
                      "internalType": "string",
                      "name": "symbol",
                      "type": "string"
                    },
                    {
                      "internalType": "address",
                      "name": "treasury",
                      "type": "address"
                    },
                    {
                      "internalType": "string",
                      "name": "memo",
                      "type": "string"
                    },
                    {
                      "internalType": "bool",
                      "name": "tokenSupplyType",
                      "type": "bool"
                    },
                    {
                      "internalType": "int64",
                      "name": "maxSupply",
                      "type": "int64"
                    },
                    {
                      "internalType": "bool",
                      "name": "freezeDefault",
                      "type": "bool"
                    },
                    {
                      "components": [
                        {
                          "internalType": "uint256",
                          "name": "keyType",
                          "type": "uint256"
                        },
                        {
                          "components": [
                            {
                              "internalType": "bool",
                              "name": "inheritAccountKey",
                              "type": "bool"
                            },
                            {
                              "internalType": "address",
                              "name": "contractId",
                              "type": "address"
                            },
                            {
                              "internalType": "bytes",
                              "name": "ed25519",
                              "type": "bytes"
                            },
                            {
                              "internalType": "bytes",
                              "name": "ECDSA_secp256k1",
                              "type": "bytes"
                            },
                            {
                              "internalType": "address",
                              "name": "delegatableContractId",
                              "type": "address"
                            }
                          ],
                          "internalType": "struct IHederaTokenService.KeyValue",
                          "name": "key",
                          "type": "tuple"
                        }
                      ],
                      "internalType": "struct IHederaTokenService.TokenKey[]",
                      "name": "tokenKeys",
                      "type": "tuple[]"
                    },
                    {
                      "components": [
                        {
                          "internalType": "int64",
                          "name": "second",
                          "type": "int64"
                        },
                        {
                          "internalType": "address",
                          "name": "autoRenewAccount",
                          "type": "address"
                        },
                        {
                          "internalType": "int64",
                          "name": "autoRenewPeriod",
                          "type": "int64"
                        }
                      ],
                      "internalType": "struct IHederaTokenService.Expiry",
                      "name": "expiry",
                      "type": "tuple"
                    }
                  ],
                  "internalType": "struct IHederaTokenService.HederaToken",
                  "name": "token",
                  "type": "tuple"
                },
                {
                  "internalType": "int64",
                  "name": "totalSupply",
                  "type": "int64"
                },
                {
                  "internalType": "bool",
                  "name": "deleted",
                  "type": "bool"
                },
                {
                  "internalType": "bool",
                  "name": "defaultKycStatus",
                  "type": "bool"
                },
                {
                  "internalType": "bool",
                  "name": "pauseStatus",
                  "type": "bool"
                },
                {
                  "components": [
                    {
                      "internalType": "int64",
                      "name": "amount",
                      "type": "int64"
                    },
                    {
                      "internalType": "address",
                      "name": "tokenId",
                      "type": "address"
                    },
                    {
                      "internalType": "bool",
                      "name": "useHbarsForPayment",
                      "type": "bool"
                    },
                    {
                      "internalType": "bool",
                      "name": "useCurrentTokenForPayment",
                      "type": "bool"
                    },
                    {
                      "internalType": "address",
                      "name": "feeCollector",
                      "type": "address"
                    }
                  ],
                  "internalType": "struct IHederaTokenService.FixedFee[]",
                  "name": "fixedFees",
                  "type": "tuple[]"
                },
                {
                  "components": [
                    {
                      "internalType": "int64",
                      "name": "numerator",
                      "type": "int64"
                    },
                    {
                      "internalType": "int64",
                      "name": "denominator",
                      "type": "int64"
                    },
                    {
                      "internalType": "int64",
                      "name": "minimumAmount",
                      "type": "int64"
                    },
                    {
                      "internalType": "int64",
                      "name": "maximumAmount",
                      "type": "int64"
                    },
                    {
                      "internalType": "bool",
                      "name": "netOfTransfers",
                      "type": "bool"
                    },
                    {
                      "internalType": "address",
                      "name": "feeCollector",
                      "type": "address"
                    }
                  ],
                  "internalType": "struct IHederaTokenService.FractionalFee[]",
                  "name": "fractionalFees",
                  "type": "tuple[]"
                },
                {
                  "components": [
                    {
                      "internalType": "int64",
                      "name": "numerator",
                      "type": "int64"
                    },
                    {
                      "internalType": "int64",
                      "name": "denominator",
                      "type": "int64"
                    },
                    {
                      "internalType": "int64",
                      "name": "amount",
                      "type": "int64"
                    },
                    {
                      "internalType": "address",
                      "name": "tokenId",
                      "type": "address"
                    },
                    {
                      "internalType": "bool",
                      "name": "useHbarsForPayment",
                      "type": "bool"
                    },
                    {
                      "internalType": "address",
                      "name": "feeCollector",
                      "type": "address"
                    }
                  ],
                  "internalType": "struct IHederaTokenService.RoyaltyFee[]",
                  "name": "royaltyFees",
                  "type": "tuple[]"
                },
                {
                  "internalType": "string",
                  "name": "ledgerId",
                  "type": "string"
                }
              ],
              "internalType": "struct IHederaTokenService.TokenInfo",
              "name": "tokenInfo",
              "type": "tuple"
            },
            {
              "internalType": "int64",
              "name": "serialNumber",
              "type": "int64"
            },
            {
              "internalType": "address",
              "name": "ownerId",
              "type": "address"
            },
            {
              "internalType": "int64",
              "name": "creationTime",
              "type": "int64"
            },
            {
              "internalType": "bytes",
              "name": "metadata",
              "type": "bytes"
            },
            {
              "internalType": "address",
              "name": "spenderId",
              "type": "address"
            }
          ],
          "internalType": "struct IHederaTokenService.NonFungibleTokenInfo",
          "name": "nonFungibleTokenInfo",
          "type": "tuple"
        }
      ],
      "stateMutability": "nonpayable",
      "type": "function"
    },
    {
      "inputs": [
        {
          "internalType": "address",
          "name": "token",
          "type": "address"
        }
      ],
      "name": "getInformationForToken",
      "outputs": [
        {
          "components": [
            {
              "components": [
                {
                  "internalType": "string",
                  "name": "name",
                  "type": "string"
                },
                {
                  "internalType": "string",
                  "name": "symbol",
                  "type": "string"
                },
                {
                  "internalType": "address",
                  "name": "treasury",
                  "type": "address"
                },
                {
                  "internalType": "string",
                  "name": "memo",
                  "type": "string"
                },
                {
                  "internalType": "bool",
                  "name": "tokenSupplyType",
                  "type": "bool"
                },
                {
                  "internalType": "int64",
                  "name": "maxSupply",
                  "type": "int64"
                },
                {
                  "internalType": "bool",
                  "name": "freezeDefault",
                  "type": "bool"
                },
                {
                  "components": [
                    {
                      "internalType": "uint256",
                      "name": "keyType",
                      "type": "uint256"
                    },
                    {
                      "components": [
                        {
                          "internalType": "bool",
                          "name": "inheritAccountKey",
                          "type": "bool"
                        },
                        {
                          "internalType": "address",
                          "name": "contractId",
                          "type": "address"
                        },
                        {
                          "internalType": "bytes",
                          "name": "ed25519",
                          "type": "bytes"
                        },
                        {
                          "internalType": "bytes",
                          "name": "ECDSA_secp256k1",
                          "type": "bytes"
                        },
                        {
                          "internalType": "address",
                          "name": "delegatableContractId",
                          "type": "address"
                        }
                      ],
                      "internalType": "struct IHederaTokenService.KeyValue",
                      "name": "key",
                      "type": "tuple"
                    }
                  ],
                  "internalType": "struct IHederaTokenService.TokenKey[]",
                  "name": "tokenKeys",
                  "type": "tuple[]"
                },
                {
                  "components": [
                    {
                      "internalType": "int64",
                      "name": "second",
                      "type": "int64"
                    },
                    {
                      "internalType": "address",
                      "name": "autoRenewAccount",
                      "type": "address"
                    },
                    {
                      "internalType": "int64",
                      "name": "autoRenewPeriod",
                      "type": "int64"
                    }
                  ],
                  "internalType": "struct IHederaTokenService.Expiry",
                  "name": "expiry",
                  "type": "tuple"
                }
              ],
              "internalType": "struct IHederaTokenService.HederaToken",
              "name": "token",
              "type": "tuple"
            },
            {
              "internalType": "int64",
              "name": "totalSupply",
              "type": "int64"
            },
            {
              "internalType": "bool",
              "name": "deleted",
              "type": "bool"
            },
            {
              "internalType": "bool",
              "name": "defaultKycStatus",
              "type": "bool"
            },
            {
              "internalType": "bool",
              "name": "pauseStatus",
              "type": "bool"
            },
            {
              "components": [
                {
                  "internalType": "int64",
                  "name": "amount",
                  "type": "int64"
                },
                {
                  "internalType": "address",
                  "name": "tokenId",
                  "type": "address"
                },
                {
                  "internalType": "bool",
                  "name": "useHbarsForPayment",
                  "type": "bool"
                },
                {
                  "internalType": "bool",
                  "name": "useCurrentTokenForPayment",
                  "type": "bool"
                },
                {
                  "internalType": "address",
                  "name": "feeCollector",
                  "type": "address"
                }
              ],
              "internalType": "struct IHederaTokenService.FixedFee[]",
              "name": "fixedFees",
              "type": "tuple[]"
            },
            {
              "components": [
                {
                  "internalType": "int64",
                  "name": "numerator",
                  "type": "int64"
                },
                {
                  "internalType": "int64",
                  "name": "denominator",
                  "type": "int64"
                },
                {
                  "internalType": "int64",
                  "name": "minimumAmount",
                  "type": "int64"
                },
                {
                  "internalType": "int64",
                  "name": "maximumAmount",
                  "type": "int64"
                },
                {
                  "internalType": "bool",
                  "name": "netOfTransfers",
                  "type": "bool"
                },
                {
                  "internalType": "address",
                  "name": "feeCollector",
                  "type": "address"
                }
              ],
              "internalType": "struct IHederaTokenService.FractionalFee[]",
              "name": "fractionalFees",
              "type": "tuple[]"
            },
            {
              "components": [
                {
                  "internalType": "int64",
                  "name": "numerator",
                  "type": "int64"
                },
                {
                  "internalType": "int64",
                  "name": "denominator",
                  "type": "int64"
                },
                {
                  "internalType": "int64",
                  "name": "amount",
                  "type": "int64"
                },
                {
                  "internalType": "address",
                  "name": "tokenId",
                  "type": "address"
                },
                {
                  "internalType": "bool",
                  "name": "useHbarsForPayment",
                  "type": "bool"
                },
                {
                  "internalType": "address",
                  "name": "feeCollector",
                  "type": "address"
                }
              ],
              "internalType": "struct IHederaTokenService.RoyaltyFee[]",
              "name": "royaltyFees",
              "type": "tuple[]"
            },
            {
              "internalType": "string",
              "name": "ledgerId",
              "type": "string"
            }
          ],
          "internalType": "struct IHederaTokenService.TokenInfo",
          "name": "tokenInfo",
          "type": "tuple"
        }
      ],
      "stateMutability": "nonpayable",
      "type": "function"
    },
    {
      "inputs": [
        {
          "internalType": "address",
          "name": "token",
          "type": "address"
        }
      ],
      "name": "getTokenDefaultFreeze",
      "outputs": [
        {
          "internalType": "bool",
          "name": "",
          "type": "bool"
        }
      ],
      "stateMutability": "nonpayable",
      "type": "function"
    },
    {
      "inputs": [
        {
          "internalType": "address",
          "name": "token",
          "type": "address"
        }
      ],
      "name": "getTokenDefaultKyc",
      "outputs": [
        {
          "internalType": "bool",
          "name": "",
          "type": "bool"
        }
      ],
      "stateMutability": "nonpayable",
      "type": "function"
    },
    {
      "inputs": [
        {
          "internalType": "address",
          "name": "token",
          "type": "address"
        },
        {
          "internalType": "uint256",
          "name": "keyType",
          "type": "uint256"
        }
      ],
      "name": "getTokenKeyPublic",
      "outputs": [
        {
          "components": [
            {
              "internalType": "bool",
              "name": "inheritAccountKey",
              "type": "bool"
            },
            {
              "internalType": "address",
              "name": "contractId",
              "type": "address"
            },
            {
              "internalType": "bytes",
              "name": "ed25519",
              "type": "bytes"
            },
            {
              "internalType": "bytes",
              "name": "ECDSA_secp256k1",
              "type": "bytes"
            },
            {
              "internalType": "address",
              "name": "delegatableContractId",
              "type": "address"
            }
          ],
          "internalType": "struct IHederaTokenService.KeyValue",
          "name": "",
          "type": "tuple"
        }
      ],
      "stateMutability": "nonpayable",
      "type": "function"
    },
    {
      "inputs": [
        {
          "internalType": "address",
          "name": "token",
          "type": "address"
        }
      ],
      "name": "getType",
      "outputs": [
        {
          "internalType": "int256",
          "name": "",
          "type": "int256"
        }
      ],
      "stateMutability": "nonpayable",
      "type": "function"
    },
    {
      "inputs": [
        {
          "internalType": "address",
          "name": "token",
          "type": "address"
        },
        {
          "internalType": "address",
          "name": "account",
          "type": "address"
        }
      ],
      "name": "isKycGranted",
      "outputs": [
        {
          "internalType": "bool",
          "name": "",
          "type": "bool"
        }
      ],
      "stateMutability": "nonpayable",
      "type": "function"
    },
    {
      "inputs": [
        {
          "internalType": "address",
          "name": "token",
          "type": "address"
        }
      ],
      "name": "isTokenAddress",
      "outputs": [
        {
          "internalType": "bool",
          "name": "",
          "type": "bool"
        }
      ],
      "stateMutability": "nonpayable",
      "type": "function"
    },
    {
      "inputs": [
        {
          "internalType": "address",
          "name": "token",
          "type": "address"
        },
        {
          "internalType": "address",
          "name": "account",
          "type": "address"
        }
      ],
      "name": "isTokenFrozen",
      "outputs": [
        {
          "internalType": "bool",
          "name": "",
          "type": "bool"
        }
      ],
      "stateMutability": "nonpayable",
      "type": "function"
    },
    {
      "inputs": [
        {
          "internalType": "address",
          "name": "token",
          "type": "address"
        },
        {
          "internalType": "bytes",
          "name": "encodedFunctionSelector",
          "type": "bytes"
        }
      ],
      "name": "redirectForToken",
      "outputs": [],
      "stateMutability": "nonpayable",
      "type": "function"
    },
    {
      "inputs": [
        {
          "internalType": "address",
          "name": "token",
          "type": "address"
        },
        {
          "internalType": "address",
          "name": "from",
          "type": "address"
        },
        {
          "internalType": "address",
          "name": "to",
          "type": "address"
        },
        {
          "internalType": "uint256",
          "name": "amount",
          "type": "uint256"
        }
      ],
      "name": "transferFrom",
      "outputs": [
        {
          "internalType": "int64",
          "name": "responseCode",
          "type": "int64"
        }
      ],
      "stateMutability": "nonpayable",
      "type": "function"
    },
    {
      "inputs": [
        {
          "internalType": "address",
          "name": "token",
          "type": "address"
        },
        {
          "internalType": "address",
          "name": "from",
          "type": "address"
        },
        {
          "internalType": "address",
          "name": "to",
          "type": "address"
        },
        {
          "internalType": "uint256",
          "name": "serialNumber",
          "type": "uint256"
        }
      ],
      "name": "transferFromNFT",
      "outputs": [
        {
          "internalType": "int64",
          "name": "responseCode",
          "type": "int64"
        }
      ],
      "stateMutability": "nonpayable",
      "type": "function"
    }
  ],
  "bytecode": "0x608060405234801561001057600080fd5b506127a8806100206000396000f3fe608060405234801561001057600080fd5b50600436106100f55760003560e01c806359c16f5a11610097578063bc2fb00e11610066578063bc2fb00e14610245578063bff9834f14610258578063f429f19b1461026b578063fd4d1c261461028c57600080fd5b806359c16f5a146101dd578063618dc65e146101fd5780638e5e7996146102125780639b23d3d91461023257600080fd5b8063319a8723116100d3578063319a87231461016557806335589a131461018857806344f38bc8146101a8578063565ca6fa146101ca57600080fd5b806315dacbea146100fa5780631955de0b146101255780631de8edad14610145575b600080fd5b61010d6101083660046113e2565b61029f565b60405160079190910b81526020015b60405180910390f35b610138610133366004611433565b6103ac565b60405161011c9190611526565b610158610153366004611539565b610420565b60405161011c9190611556565b610178610173366004611539565b610460565b604051901515815260200161011c565b61019b610196366004611539565b6104ee565b60405161011c9190611941565b6101bb6101b6366004611539565b610502565b60405161011c93929190611954565b6101786101d836600461198d565b610533565b6101f06101eb366004611539565b61059c565b60405161011c91906119c6565b61021061020b366004611b16565b6105b0565b005b610225610220366004611bb8565b61069e565b60405161011c9190611be6565b61010d6102403660046113e2565b6106c5565b61017861025336600461198d565b610723565b610178610266366004611539565b61078c565b61027e610279366004611539565b6107f4565b60405190815260200161011c565b61017861029a366004611539565b61085f565b6040516001600160a01b0385811660248301528481166044830152831660648201526084810182905260009081908190610167907f15dacbea000000000000000000000000000000000000000000000000000000009060a4015b60408051601f198184030181529181526020820180516001600160e01b03166001600160e01b03199094169390931790925290516103379190611c6a565b6000604051808303816000865af19150503d8060008114610374576040519150601f19603f3d011682016040523d82523d6000602084013e610379565b606091505b50915091508161038a57601561039e565b8080602001905181019061039e9190611c9d565b60030b979650505050505050565b6103f26040518060a0016040528060001515815260200160006001600160a01b03168152602001606081526020016060815260200160006001600160a01b031681525090565b6000806103ff85856108c2565b915060070b9150601660030b821461041657600080fd5b9150505b92915050565b60408051606081018252600080825260208201819052918101829052908061044784610a1f565b90925090506016821461045957600080fd5b9392505050565b600080600061046e84610b42565b9092509050601682146104595760405162461bcd60e51b815260206004820152602360248201527f676574546f6b656e44656661756c74467265657a65537461747573206661696c60448201527f656421000000000000000000000000000000000000000000000000000000000060648201526084015b60405180910390fd5b6104f66112b8565b60008061044784610c3f565b6060806060600061051285610d28565b9196509450925060070b90506016811461052b57600080fd5b509193909250565b60008060006105428585610e28565b915060070b9150601660030b82146104165760405162461bcd60e51b815260206004820152601660248201527f546f6b656e20697346726f7a656e206661696c6564210000000000000000000060448201526064016104e5565b6105a461136f565b60008061044784610f1c565b6000806101676001600160a01b031663618dc65e60e01b85856040516024016105da929190611cb8565b60408051601f198184030181529181526020820180516001600160e01b03166001600160e01b03199094169390931790925290516106189190611c6a565b6000604051808303816000865af19150503d8060008114610655576040519150601f19603f3d011682016040523d82523d6000602084013e61065a565b606091505b50915091507f4af4780e06fe8cb9df64b0794fa6f01399af979175bb988e35e0e57e594567bc8282604051610690929190611ce2565b60405180910390a150505050565b6106a661138f565b6000806106b38585611005565b90925090506016821461041657600080fd5b6040516001600160a01b0385811660248301528481166044830152831660648201526084810182905260009081908190610167907f9b23d3d9000000000000000000000000000000000000000000000000000000009060a4016102f9565b600080600061073285856110f8565b915060070b9150601660030b82146104165760405162461bcd60e51b815260206004820152601360248201527f546f6b656e2069734b7963206661696c6564210000000000000000000000000060448201526064016104e5565b600080600061079a84611149565b915060070b9150601660030b82146104595760405162461bcd60e51b815260206004820152601c60248201527f546f6b656e206973546f6b656e41646472657373206661696c6564210000000060448201526064016104e5565b600080600061080284611192565b60030b915060070b9150601660030b82146104595760405162461bcd60e51b815260206004820152601c60248201527f546f6b656e20747970652061707072616973616c206661696c6564210000000060448201526064016104e5565b600080600061086d8461126f565b9092509050601682146104595760405162461bcd60e51b815260206004820181905260248201527f676574546f6b656e44656661756c744b7963537461747573206661696c65642160448201526064016104e5565b6040805160a081018252600080825260208083018290526060838501819052808401526080830182905283516001600160a01b03871660248201526044808201879052855180830390910181526064909101855290810180516001600160e01b03167f3c4dd32e0000000000000000000000000000000000000000000000000000000017905292519092839182916101679161095e9190611c6a565b6000604051808303816000865af19150503d806000811461099b576040519150601f19603f3d011682016040523d82523d6000602084013e6109a0565b606091505b50915091506109eb6040518060a0016040528060001515815260200160006001600160a01b03168152602001606081526020016060815260200160006001600160a01b031681525090565b826109f857601581610a0c565b81806020019051810190610a0c9190611e03565b60039190910b9890975095505050505050565b604080516060810182526000808252602080830182905282840182905283516001600160a01b038616602480830191909152855180830390910181526044909101855290810180516001600160e01b03167fd614cdb800000000000000000000000000000000000000000000000000000000179052925190928391829161016791610aaa9190611c6a565b6000604051808303816000865af19150503d8060008114610ae7576040519150601f19603f3d011682016040523d82523d6000602084013e610aec565b606091505b506040805160608101825260008082526020820181905291810191909152919350915082610b1c57601581610b30565b81806020019051810190610b309190611ed4565b60039190910b97909650945050505050565b6040516001600160a01b0382166024820152600090819081908190610167907fa7daa18d00000000000000000000000000000000000000000000000000000000906044015b60408051601f198184030181529181526020820180516001600160e01b03166001600160e01b0319909416939093179092529051610bc59190611c6a565b6000604051808303816000865af19150503d8060008114610c02576040519150601f19603f3d011682016040523d82523d6000602084013e610c07565b606091505b509150915081610c1a5760156000610c2e565b80806020019051810190610c2e9190611f08565b60039190910b969095509350505050565b6000610c496112b8565b604080516001600160a01b03851660248083019190915282518083039091018152604490910182526020810180516001600160e01b03167f1f69565f000000000000000000000000000000000000000000000000000000001790529051600091829161016791610cb891611c6a565b6000604051808303816000865af19150503d8060008114610cf5576040519150601f19603f3d011682016040523d82523d6000602084013e610cfa565b606091505b5091509150610d076112b8565b82610d1457601581610b30565b81806020019051810190610b3091906124dc565b604080516001600160a01b03831660248083019190915282518083039091018152604490910182526020810180516001600160e01b03167fae7611a0000000000000000000000000000000000000000000000000000000001790529051600091606091829182918591829161016791610da091611c6a565b6000604051808303816000865af19150503d8060008114610ddd576040519150601f19603f3d011682016040523d82523d6000602084013e610de2565b606091505b5091509150606080606084610dfb576015838383610e0f565b83806020019051810190610e0f9190612520565b60039390930b9d919c509a509098509650505050505050565b6040516001600160a01b03838116602483015282166044820152600090819081908190610167907f46de0fb100000000000000000000000000000000000000000000000000000000906064015b60408051601f198184030181529181526020820180516001600160e01b03166001600160e01b0319909416939093179092529051610eb39190611c6a565b6000604051808303816000865af19150503d8060008114610ef0576040519150601f19603f3d011682016040523d82523d6000602084013e610ef5565b606091505b509150915081610f085760156000610b30565b80806020019051810190610b309190611f08565b6000610f2661136f565b604080516001600160a01b03851660248083019190915282518083039091018152604490910182526020810180516001600160e01b03167f3f28a19b000000000000000000000000000000000000000000000000000000001790529051600091829161016791610f9591611c6a565b6000604051808303816000865af19150503d8060008114610fd2576040519150601f19603f3d011682016040523d82523d6000602084013e610fd7565b606091505b5091509150610fe461136f565b82610ff157601581610b30565b81806020019051810190610b3091906125b9565b600061100f61138f565b604080516001600160a01b0386166024820152600785900b60448083019190915282518083039091018152606490910182526020810180516001600160e01b03167f287e1da800000000000000000000000000000000000000000000000000000000179052905160009182916101679161108891611c6a565b6000604051808303816000865af19150503d80600081146110c5576040519150601f19603f3d011682016040523d82523d6000602084013e6110ca565b606091505b50915091506110d761138f565b826110e457601581610a0c565b81806020019051810190610a0c9190612660565b6040516001600160a01b03838116602483015282166044820152600090819081908190610167907ff2c31ff40000000000000000000000000000000000000000000000000000000090606401610e75565b6040516001600160a01b0382166024820152600090819081908190610167907f19f373610000000000000000000000000000000000000000000000000000000090604401610b87565b604080516001600160a01b03831660248083019190915282518083039091018152604490910182526020810180516001600160e01b03167f93272baf0000000000000000000000000000000000000000000000000000000017905290516000918291829182916101679161120591611c6a565b6000604051808303816000865af19150503d8060008114611242576040519150601f19603f3d011682016040523d82523d6000602084013e611247565b606091505b50915091508161125b576015600019610c2e565b80806020019051810190610c2e9190612748565b6040516001600160a01b0382166024820152600090819081908190610167907f335e04c10000000000000000000000000000000000000000000000000000000090604401610b87565b60408051610240810182526060610120820181815261014083018290526000610160840181905261018084018390526101a084018190526101c084018190526101e0840181905261020084018390528451928301855280835260208301819052938201939093526102208201529081908152602001600060070b8152602001600015158152602001600015158152602001600015158152602001606081526020016060815260200160608152602001606081525090565b60405180604001604052806113826112b8565b8152600060209091015290565b6040518060c001604052806113a26112b8565b8152600060208201819052604082018190526060808301829052608083015260a09091015290565b6001600160a01b03811681146113df57600080fd5b50565b600080600080608085870312156113f857600080fd5b8435611403816113ca565b93506020850135611413816113ca565b92506040850135611423816113ca565b9396929550929360600135925050565b6000806040838503121561144657600080fd5b8235611451816113ca565b946020939093013593505050565b60005b8381101561147a578181015183820152602001611462565b83811115611489576000848401525b50505050565b600081518084526114a781602086016020860161145f565b601f01601f19169290920160200192915050565b805115158252600060208201516001600160a01b0380821660208601526040840151915060a060408601526114f360a086018361148f565b91506060840151858303606087015261150c838261148f565b925050806080850151166080860152508091505092915050565b60208152600061045960208301846114bb565b60006020828403121561154b57600080fd5b8135610459816113ca565b6060810161041a8284805160070b82526001600160a01b036020820151166020830152604081015160070b60408301525050565b600081518084526020808501808196508360051b8101915082860160005b858110156115e657828403895281518051855285015160408686018190526115d2818701836114bb565b9a87019a95505050908401906001016115a8565b5091979650505050505050565b600061016082518185526116098286018261148f565b91505060208301518482036020860152611623828261148f565b915050604083015161164060408601826001600160a01b03169052565b5060608301518482036060860152611658828261148f565b915050608083015161166e608086018215159052565b5060a083015161168360a086018260070b9052565b5060c083015161169760c086018215159052565b5060e083015184820360e08601526116af828261158a565b915050610100808401516116eb82870182805160070b82526001600160a01b036020820151166020830152604081015160070b60408301525050565b5090949350505050565b600081518084526020808501945080840160005b83811015611762578151805160070b8852838101516001600160a01b03908116858a01526040808301511515908a01526060808301511515908a0152608091820151169088015260a09096019590820190600101611709565b509495945050505050565b600081518084526020808501945080840160005b838110156117625781518051600790810b895284820151810b858a0152604080830151820b908a015260608083015190910b9089015260808082015115159089015260a0908101516001600160a01b03169088015260c09096019590820190600101611781565b600081518084526020808501945080840160005b838110156117625781518051600790810b895284820151810b858a015260408083015190910b908901526060808201516001600160a01b03908116918a01919091526080808301511515908a015260a091820151169088015260c090960195908201906001016117fc565b6000610120825181855261187d828601826115f3565b9150506020830151611894602086018260070b9052565b5060408301516118a8604086018215159052565b5060608301516118bc606086018215159052565b5060808301516118d0608086018215159052565b5060a083015184820360a08601526118e882826116f5565b91505060c083015184820360c0860152611902828261176d565b91505060e083015184820360e086015261191c82826117e8565b9150506101008084015185830382870152611937838261148f565b9695505050505050565b6020815260006104596020830184611867565b60608152600061196760608301866116f5565b8281036020840152611979818661176d565b9050828103604084015261193781856117e8565b600080604083850312156119a057600080fd5b82356119ab816113ca565b915060208301356119bb816113ca565b809150509250929050565b6020815260008251604060208401526119e26060840182611867565b9050602084015160030b60408401528091505092915050565b7f4e487b7100000000000000000000000000000000000000000000000000000000600052604160045260246000fd5b60405160a0810167ffffffffffffffff81118282101715611a4d57611a4d6119fb565b60405290565b6040805190810167ffffffffffffffff81118282101715611a4d57611a4d6119fb565b604051610120810167ffffffffffffffff81118282101715611a4d57611a4d6119fb565b60405160c0810167ffffffffffffffff81118282101715611a4d57611a4d6119fb565b604051601f8201601f1916810167ffffffffffffffff81118282101715611ae657611ae66119fb565b604052919050565b600067ffffffffffffffff821115611b0857611b086119fb565b50601f01601f191660200190565b60008060408385031215611b2957600080fd5b8235611b34816113ca565b9150602083013567ffffffffffffffff811115611b5057600080fd5b8301601f81018513611b6157600080fd5b8035611b74611b6f82611aee565b611abd565b818152866020838501011115611b8957600080fd5b816020840160208301376000602083830101528093505050509250929050565b8060070b81146113df57600080fd5b60008060408385031215611bcb57600080fd5b8235611bd6816113ca565b915060208301356119bb81611ba9565b602081526000825160c06020840152611c0260e0840182611867565b9050602084015160070b604084015260408401516001600160a01b038082166060860152606086015160070b608086015260808601519150601f198584030160a0860152611c50838361148f565b92508060a08701511660c086015250508091505092915050565b60008251611c7c81846020870161145f565b9190910192915050565b8051600381900b8114611c9857600080fd5b919050565b600060208284031215611caf57600080fd5b61045982611c86565b6001600160a01b0383168152604060208201526000611cda604083018461148f565b949350505050565b8215158152604060208201526000611cda604083018461148f565b80518015158114611c9857600080fd5b8051611c98816113ca565b600082601f830112611d2957600080fd5b8151611d37611b6f82611aee565b818152846020838601011115611d4c57600080fd5b61041682602083016020870161145f565b600060a08284031215611d6f57600080fd5b611d77611a2a565b9050611d8282611cfd565b81526020820151611d92816113ca565b6020820152604082015167ffffffffffffffff80821115611db257600080fd5b611dbe85838601611d18565b60408401526060840151915080821115611dd757600080fd5b50611de484828501611d18565b6060830152506080820151611df8816113ca565b608082015292915050565b60008060408385031215611e1657600080fd5b611e1f83611c86565b9150602083015167ffffffffffffffff811115611e3b57600080fd5b611e4785828601611d5d565b9150509250929050565b8051611c9881611ba9565b600060608284031215611e6e57600080fd5b6040516060810181811067ffffffffffffffff82111715611e9157611e916119fb565b80604052508091508251611ea481611ba9565b81526020830151611eb4816113ca565b60208201526040830151611ec781611ba9565b6040919091015292915050565b60008060808385031215611ee757600080fd5b611ef083611c86565b9150611eff8460208501611e5c565b90509250929050565b60008060408385031215611f1b57600080fd5b611f2483611c86565b9150611eff60208401611cfd565b600067ffffffffffffffff821115611f4c57611f4c6119fb565b5060051b60200190565b600082601f830112611f6757600080fd5b81516020611f77611b6f83611f32565b82815260059290921b84018101918181019086841115611f9657600080fd5b8286015b8481101561201857805167ffffffffffffffff80821115611fbb5760008081fd5b908801906040828b03601f1901811315611fd55760008081fd5b611fdd611a53565b838801518152908301519082821115611ff65760008081fd5b6120048c8984870101611d5d565b818901528652505050918301918301611f9a565b509695505050505050565b6000610160828403121561203657600080fd5b61203e611a76565b9050815167ffffffffffffffff8082111561205857600080fd5b61206485838601611d18565b8352602084015191508082111561207a57600080fd5b61208685838601611d18565b602084015261209760408501611d0d565b604084015260608401519150808211156120b057600080fd5b6120bc85838601611d18565b60608401526120cd60808501611cfd565b60808401526120de60a08501611e51565b60a08401526120ef60c08501611cfd565b60c084015260e084015191508082111561210857600080fd5b5061211584828501611f56565b60e08301525061010061212a84828501611e5c565b9082015292915050565b600082601f83011261214557600080fd5b81516020612155611b6f83611f32565b82815260a0928302850182019282820191908785111561217457600080fd5b8387015b858110156121f85781818a0312156121905760008081fd5b612198611a2a565b81516121a381611ba9565b8152818601516121b2816113ca565b8187015260406121c3838201611cfd565b9082015260606121d4838201611cfd565b908201526080828101516121e7816113ca565b908201528452928401928101612178565b5090979650505050505050565b600082601f83011261221657600080fd5b81516020612226611b6f83611f32565b82815260c0928302850182019282820191908785111561224557600080fd5b8387015b858110156121f85781818a0312156122615760008081fd5b612269611a9a565b815161227481611ba9565b81528186015161228381611ba9565b8187015260408281015161229681611ba9565b908201526060828101516122a981611ba9565b9082015260806122ba838201611cfd565b9082015260a0828101516122cd816113ca565b908201528452928401928101612249565b600082601f8301126122ef57600080fd5b815160206122ff611b6f83611f32565b82815260c0928302850182019282820191908785111561231e57600080fd5b8387015b858110156121f85781818a03121561233a5760008081fd5b612342611a9a565b815161234d81611ba9565b81528186015161235c81611ba9565b8187015260408281015161236f81611ba9565b90820152606082810151612382816113ca565b908201526080612393838201611cfd565b9082015260a0828101516123a6816113ca565b908201528452928401928101612322565b600061012082840312156123ca57600080fd5b6123d2611a76565b9050815167ffffffffffffffff808211156123ec57600080fd5b6123f885838601612023565b835261240660208501611e51565b602084015261241760408501611cfd565b604084015261242860608501611cfd565b606084015261243960808501611cfd565b608084015260a084015191508082111561245257600080fd5b61245e85838601612134565b60a084015260c084015191508082111561247757600080fd5b61248385838601612205565b60c084015260e084015191508082111561249c57600080fd5b6124a8858386016122de565b60e0840152610100915081840151818111156124c357600080fd5b6124cf86828701611d18565b8385015250505092915050565b600080604083850312156124ef57600080fd5b6124f883611c86565b9150602083015167ffffffffffffffff81111561251457600080fd5b611e47858286016123b7565b6000806000806080858703121561253657600080fd5b61253f85611c86565b9350602085015167ffffffffffffffff8082111561255c57600080fd5b61256888838901612134565b9450604087015191508082111561257e57600080fd5b61258a88838901612205565b935060608701519150808211156125a057600080fd5b506125ad878288016122de565b91505092959194509250565b600080604083850312156125cc57600080fd5b6125d583611c86565b9150602083015167ffffffffffffffff808211156125f257600080fd5b908401906040828703121561260657600080fd5b604051604081018181108382111715612621576126216119fb565b60405282518281111561263357600080fd5b61263f888286016123b7565b82525061264e60208401611c86565b60208201528093505050509250929050565b6000806040838503121561267357600080fd5b61267c83611c86565b9150602083015167ffffffffffffffff8082111561269957600080fd5b9084019060c082870312156126ad57600080fd5b6126b5611a9a565b8251828111156126c457600080fd5b6126d0888286016123b7565b8252506126df60208401611e51565b60208201526126f060408401611d0d565b604082015261270160608401611e51565b606082015260808301518281111561271857600080fd5b61272488828601611d18565b60808301525061273660a08401611d0d565b60a08201528093505050509250929050565b6000806040838503121561275b57600080fd5b61276483611c86565b9150611eff60208401611c8656fea2646970667358221220348f736a90b63692d0d1a6684e2681ba325c105735205b26683e2e748325b3ca64736f6c63430008090033",
  "linkReferences": {},
  "deployedLinkReferences": {}
}